:020000040000FA
:100000000128831603138030880083120313FF3006
:100010008800831603138501831603178801831252
:100020000313FF3085000A30A3000B30A400BF305B
:10003000880005101D30A0000A30A1000130A20088
:100040007120051485101D30A0000A30A100013078
:10005000A2007120851405111D30A0000A30A100F6
:100060000130A2007120051585111D30A0000A3055
:10007000A1000130A20071208515A40B1928FF30C2
:100080008500A030A0008730A1000230A2007120BE
:10009000A30B1528F830880005101D30A0000A3089
:1000A000A1000130A2007120051485101D30A000B0
:1000B0000A30A1000130A2007120851405111D3005
:1000C000A0000A30A1000130A200712005158511A1
:1000D0001D30A0000A30A1000130A200712085155A
:1000E0004C28A00B7128A10B7128A20B71280800C5
:0400F00000340034A4
:02400E00E12FA0
:00000001FF
