:020000040000FA
:020000000528D1
:040002000034003492
:06000A00831603138801B8
:10001000831203138801831603130914831603172D
:10002000881283120313FF30A000F530A1000430C2
:10003000A2007830A6002730A7001430A800503066
:10004000AC002730AD001430AE000830B2007D3077
:10005000B3002030B40009182E2830283D202B286A
:10006000A2204320B80B3128A5205C20B90B3528ED
:10007000A8208720BA0B39282B28FF308800AB2016
:100080008801AB20080001308800B82002308800C9
:10009000B82004308800B82008308800B82010301C
:1000A0008800B82020308800B82040308800B82070
:1000B00080308800B820080001308800C520023058
:1000C0008800C52004308800C52008308800C5207D
:1000D00010308800C52020308800C52040308800BE
:1000E000C52080308800C52040308800C5202030E1
:1000F0008800C52010308800C52008308800C52041
:1001000004308800C52002308800C5200800013076
:100110008800D22003308800D22007308800D22007
:100120000F308800D2201F308800D2203F30880056
:10013000D2207F308800D220FF308800D220880172
:10014000D22008000330B80008000330B9000800CE
:100150000330BA0008002008A3002108A4002208E8
:10016000A500A50BB128A40BAF28A30BAD28080050
:100170002608A9002708AA002808AB00AB0BBE2858
:10018000AA0BBC28A90BBA2808002C08AF002D0820
:10019000B0002E08B100B10BCB28B00BC928AF0BB3
:1001A000C72808003208B5003308B6003408B70085
:1001B000B70BD828B60BD628B50BD4280800880171
:0201C000080035
:02400E00F12F90
:00000001FF
