:020000040000FA
:020000000528D1
:040002000034003492
:06000A00831603138801B8
:10001000831203138801831603130914831603172D
:10002000881283120313FF30A000F530A1000430C2
:10003000A2007830A6002730A7001430A800503066
:10004000AC002730AD001430AE000830B2007D3077
:10005000B3002030B40009182E2830283D202B286A
:10006000A3204420B80B3128A6205D20B90B3528E9
:10007000A9208820BA0B39282B28FF308800AC2013
:1000800000308800AC20080001308800B920023020
:100090008800B92004308800B92008308800B920D1
:1000A00010308800B92020308800B9204030880006
:1000B000B92080308800B920080001308800C620AF
:1000C00002308800C62004308800C620083088002E
:1000D000C62010308800C62020308800C62040305E
:1000E0008800C62080308800C62040308800C620A6
:1000F00020308800C62010308800C62008308800D4
:10010000C62004308800C62002308800C6200800BF
:1001100001308800D32003308800D32007308800C6
:10012000D3200F308800D3201F308800D3203F30E9
:100130008800D3207F308800D320FF308800D32070
:100140008801D32008000330B80008000330B9004C
:1001500008000330BA0008002008A3002108A4000A
:100160002208A500A50BB228A40BB028A30BAE282B
:1001700008002608A9002708AA002808AB00AB0B36
:10018000BF28AA0BBD28A90BBB2808002C08AF006C
:100190002D08B0002E08B100B10BCC28B00BCA2836
:1001A000AF0BC82808003208B5003308B600340881
:1001B000B700B70BD928B60BD728B50BD528080040
:0401C00088010800AA
:02400E00F12F90
:00000001FF
